:1000000019C028C027C026C025C024C023C022C0D4
:1000100021C020C01FC0E9C11DC01CC01BC01AC028
:1000200019C018C0F9C116C015C014C013C012C041
:1000300011C010C011241FBECFEFD2E0DEBFCDBF74
:1000400021E0A0E0B1E001C01D92AA39B207E1F7BA
:100050001ED3A8C3D5CF2CE8FC0111922A95E9F74D
:1000600008952F923F924F925F926F927F928F925C
:100070009F92AF92BF92CF92DF92EF92FF920F9337
:100080001F93CF93DF9300D01F92CDB7DEB73C0113
:100090008C010F571F4F6C0180E8C80ED11CF30173
:1000A000EE57FF4FFB83EA83C3018D579F4F5C01DF
:1000B00032967F014301F7E88F0E911C130185E80A
:1000C000280E311CF8018081F6019081891709F40E
:1000D0009BC0F301E80FF11D208127FF1DC0EA81BD
:1000E000FB819081981721F0F40190819F5F9083AC
:1000F000EA81FB8180838FEFF5018083822F8076F8
:10010000803621F082958F708E5F01C080E0F7010C
:100110008083811106C046C0F7018081811142C0F1
:100120002083EA81FB813081F701808190E0830F99
:10013000911D81389105B4F180E8482E431AF89456
:10014000F6014081F8018081841708F062C0EA81DD
:10015000FB818081F42FF81B8F2FF6018083789428
:10016000F8018081481708F057C0512C50E0B301C6
:10017000C301840D951D29830CD3EA81FB81808105
:10018000B301680F711DA201C30103D32981F801D6
:100190008081EA81FB819081891BF8018083EA815B
:1001A000FB811082F80180818F5F8083EA81FB816F
:1001B0009081382F391B87FF02C0F8011082F701A8
:1001C000808138131CC0F501808182130AC0A3010D
:1001D000490F511DF10180819181019691838083A6
:1001E00006C0F40180818F5F808340E050E0F80119
:1001F0008081EA81FB8180834115510541F4F5013D
:100200008081282720835ECF80E090E010C0CA0163
:100210000EC0842D840FA1CFEA81FB818081481B11
:1002200050E0B301680F711DC3012983AECF0F9059
:100230000F900F90DF91CF911F910F91FF90EF9052
:10024000DF90CF90BF90AF909F908F907F906F90F6
:100250005F904F903F902F900895FC0180818076B1
:10026000803611F4818108958081807682958F7027
:100270008E5F08959093010180930001A1C0809149
:10028000000190910101EDCEEF92FF921F93CF9369
:10029000DF937C0119E1CEE2D1E06C2FC7010ED1D2
:1002A0008330D1F0813011F4D0E0F7CF8230A8F361
:1002B000823011F4D111F0CFCB3108F0C150115080
:1002C00059F7E0910001F0910101E657FF4F80815D
:1002D0008F5F808386E001C083E0DF91CF911F9123
:1002E000FF90EF900895CF93DF93CDB7DEB760977F
:1002F0000FB6F894DEBF0FBECDBF89836A834B83F0
:10030000CE010196C1DF60960FB6F894DEBF0FBE36
:10031000CDBFDF91CF9108958091840090918500A9
:10032000909305018093040180910401909105014F
:100330000197909389008093880081E08093060163
:10034000B19AEFE6F0E0808182608083E8E6F0E039
:1003500080818B7F8083DA9A82E080936D0008959C
:10036000B19A90916F009D7F90936F00209104014E
:100370003091050140EE51E0682F649FC001659FF8
:10038000900D1124280F391F309389002093880085
:10039000B19BFECF0895C0DF599A519A78948FE0AF
:1003A000DFDF59985198B8DF10920301E0910701FF
:1003B000F0910801E557FF4F80818F5F808308959A
:1003C00059985198909308018093070180E9809390
:1003D000C1008DE18093C400E1E8F0E08081887F76
:1003E0008160808380E880BF08951F920F920FB6CE
:1003F0000F9211248F93EF93FF93EFE6F0E080814B
:100400008D7F808310920601FF91EF918F910F9065
:100410000FBE0F901F9018951F920F920FB60F925C
:1004200011242F933F934F935F936F937F938F93F9
:100430009F93AF93BF93CF93EF93FF938091C000AF
:1004400084FF09C0E0910701F0910801E957FF4FCF
:1004500080818F5F80838091C00083FF05C0809181
:1004600002018F5F80930201C091C6008091030159
:10047000811101C051DF8091070190910801FC01B9
:10048000E058FF4F308121E0230F2083DC01A30FD0
:10049000B11DCC9327FD1082FF91EF91CF91BF91B9
:1004A000AF919F918F917F916F915F914F913F910C
:1004B0002F910F900FBE0F901F901895CF92DF9243
:1004C000EF92FF920F931F93CF93DF9300D000D052
:1004D0001F92CDB7DEB78C016D83BFDED82E90E0C2
:1004E0008FEF2D2D30E0215031096D81492F50E0E3
:1004F000F8014217530734F4E40FF51F40818427B5
:100500009F5FF4CFE20FF31F8083DA9B03C004DF09
:1005100082E098C080910601882371F08091840068
:10052000909185002091040130910501821B930B6D
:100530008038954208F483C0809106018823C1F079
:1005400080918400909185002091040130910501F3
:10055000821B930B693308F068E340EE51E0649F1F
:100560009001659F300D11248217930708F469C02C
:10057000DA99CDCFD1DEC02E780101E08E2D8C1915
:100580008D1508F04CC00C83F70191917F019B837E
:100590001982F894209184003091850030930501F0
:1005A00020930401489907C07894882309F4B0CFB8
:1005B000F2DE84E047C0599A519A009303011A82EF
:1005C0008A818830E8F48B819C81892311E009F4C9
:1005D00010E08A818F5FC4DE8981882311F0489BF7
:1005E000E7CF112319F05998519802C0599A519A9E
:1005F00019838C81880F8C839A819F5F9A83E0CFC7
:1006000089E0AEDE8981882311F0489BD1CF5998CB
:10061000519878948AE0A4DE4899B0CFC9CF7CDEA7
:1006200010920301E0910701F0910801E857FF4F94
:100630008081918101969183808383E003C080E073
:1006400001C081E00F900F900F900F900F90DF91FD
:10065000CF911F910F91FF90EF90DF90CF90089571
:10066000CF93DF93CDB7DEB760970FB6F894DEBFB8
:100670000FBECDBF8983CE01019606DE60960FB610
:10068000F894DEBF0FBECDBFDF91CF9108958FEFFD
:1006900084B987B987B18C7F87B988B1836088B9FD
:1006A000789489E091E0D7DC89E091E0E3DD40E0F7
:1006B00060E08BEB18DE8093950101E010E0C1E073
:1006C000D0E0DDDDFC018081833811F42A9A29987D
:1006D0008081823811F4299A2A988081873E49F4D2
:1006E0008781873031F42A9A2998D0939901C09351
:1006F00098018081873E49F48781863031F4299AB8
:100700002A98D0939701C093960130991FC0809189
:10071000980190919901181619062CF4019690935E
:10072000990180939801809198019091990189395C
:100730009A4364F0109299011092980182E890DF38
:1007400080939501D0939701C09396013199B9CFC9
:100750008091960190919701181619062CF4019634
:1007600090939701809396018091960190919701C3
:1007700089399A430CF4A5CF1092970110929601F3
:1007800083E86EDF8093950110939901009398019F
:1007900098CFFB01DC0102C001900D924150504006
:0807A000D8F70895F894FFCF8B
:00000001FF
