:100000000C9462000C948A000C948A000C948A0070
:100010000C948A000C948A000C948A000C948A0038
:100020000C948A000C948A000C9482040C94EB02C9
:100030000C948A000C948A000C948A000C948A0018
:100040000C94A1020C948A000C948A000C948A00EF
:100050000C948A000C948A000C948A000C948A00F8
:100060000C948A000C948A000000000024002700F1
:100070002A0000000000250028002B0000000000DE
:1000800023002600290004040404040404040202DA
:100090000202020203030303030301020408102007
:1000A0004080010204081020010204081020000012
:1000B0000008000201000003040700000000000027
:1000C0000000520811241FBECFEFD8E0DEBFCDBF25
:1000D00011E0A0E0B1E0E2E9F1E102C005900D928B
:1000E000A230B107D9F721E0A2E0B1E001C01D9232
:1000F000AA3DB207E1F710E0C2E6D0E004C02197C4
:10010000FE010E94A608C136D107C9F70E94B804B3
:100110000C94C7080C940000833081F028F48130DF
:1001200099F08230A9F008958730A9F08830C9F09D
:100130008430B1F4809180008F7D03C08091800075
:100140008F7780938000089584B58F7784BD08955C
:1001500084B58F7DFBCF8091B0008F778093B00006
:1001600008958091B0008F7DF9CFCF93DF93282F32
:1001700030E0F901E255FF4F8491F901E656FF4F57
:10018000D491F901EA57FF4FC491CC23A1F081111A
:100190000E948C00EC2FF0E0EE0FFF1FE458FF4FA1
:1001A000A591B491EC91ED2381E090E009F480E019
:1001B000DF91CF91089580E090E0FACF1F93CF9325
:1001C000DF93282F30E0F901E255FF4F8491F901C8
:1001D000E656FF4FD491F901EA57FF4FC491CC2363
:1001E000A9F0162F81110E948C00EC2FF0E0EE0F89
:1001F000FF1FEE58FF4FA591B4918FB7F894EC9183
:10020000111108C0D095DE23DC938FBFDF91CF9111
:100210001F910895DE2BF8CFCF93DF9390E0FC0180
:10022000E656FF4F24918A579F4FFC018491882303
:10023000D1F090E0880F991FFC01E859FF4FA5917C
:10024000B491FC01EE58FF4FC591D491623071F426
:100250009FB7F8943C91822F809583238C93E881FB
:100260002E2B28839FBFDF91CF9108958FB7F894ED
:10027000EC912E2B2C938FBFF6CF2FB7F894609173
:1002800038017091390180913A0190913B012FBF63
:100290000895CF92DF92EF92FF920F931F93CF9327
:1002A000DF93EC018D850E94B500182F8C851817FF
:1002B00059F10E943D01C880D980EA80FB806C1909
:1002C0007D098E099F09CC80DD80EE80FF806C1552
:1002D0007D058E059F05C0F00E943D0168837983EE
:1002E0008A839B831C87188619861A861B8681E061
:1002F0008E8781E090E0DF91CF911F910F91FF9069
:10030000EF90DF90CF90089588859985AA85BB8569
:10031000892B8A2B8B2BD1F00E943D0108811981FA
:100320002A813B81601B710B820B930B0885198519
:100330002A853B85601771078207930738F00E9472
:100340003D01688379838A839B83CDCF1E8690E0AD
:1003500080E0D1CFFC0180818076803611F48181EC
:1003600008958081829586708E5F0895CF92DF9286
:10037000EF92FF920F931F93CF93DF93EC0109E16C
:100380001EE2EE24E394F12C93E0D92ECC24C39406
:10039000CE010E94AA0180934A01E0914A01E150F6
:1003A000109249018FEF909149019E1768F4A09136
:1003B0004901AC0FBD2FB11D9C9189279091490136
:1003C0009F5F90934901EFCFEC0FFD2FF11D8083CC
:1003D000F89480914801813059F480914701811748
:1003E00038F01092480180916F008D7F80936F00EC
:1003F000789480914801813031F4809147018431B3
:1004000038F2C12CC5CF8091480181110EC0F894FB
:1004100080916F008F7D80936F00B59B09C08091A4
:100420006F00806280936F007894C110B1CF56C086
:10043000E0914501F091460180819091440197013E
:1004400001C0220F9A95EAF7822B80838091840065
:10045000909185008A5A9C4F90934301809342016A
:10046000809142019091430190938900809388008C
:100470007894D0934101C0934001109249011092A9
:100480003F01888180933E01D0924801109247013C
:10049000B19A80916F00826080936F0080914801D3
:1004A0008330E1F380913F018823B1F0E0913C017A
:1004B000F0913D01E757FF4F808191810196918333
:1004C000808383E090E0DF91CF911F910F91FF90A7
:1004D000EF90DF90CF900895809148011B3108F094
:1004E0001150015009F052CF8091D6019091D7015F
:1004F00001969093D7018093D60186E090E0E3CFF8
:10050000833829F410921C011092000111C0823826
:1005100011F0853819F491E090930001873E41F481
:10052000663021F481E0809300010895673051F333
:100530000895882321F083E860E00C94800282E82B
:10054000FBCF1F920F920FB60F9211242F933F9360
:100550008F939F93AF93BF9380913801909139010E
:10056000A0913A01B0913B013091370123E0230F74
:100570002D3758F50196A11DB11D209337018093A9
:10058000380190933901A0933A01B0933B018091D7
:10059000330190913401A0913501B091360101965B
:1005A000A11DB11D8093330190933401A0933501B7
:1005B000B0933601BF91AF919F918F913F912F9151
:1005C0000F900FBE0F901F90189526E8230F0296EC
:1005D000A11DB11DD2CF1F920F920FB60F92112401
:1005E0000F931F932F933F934F935F936F937F933B
:1005F0008F939F93AF93BF93CF93DF93EF93FF932B
:10060000B19A809142019091430180549C4F909304
:100610004301809342018091420190914301909364
:1006200089008093880080910201882371F01092E4
:100630000201189B26C081E080934801B59A809101
:100640006F00806280936F001CC0809147018F5FB4
:100650008093470180914801843009F040C0809127
:100660004701893018F580913E0190E09595879576
:1006700080933E01189B05C080913E018068809365
:100680003E01FF91EF91DF91CF91BF91AF919F918B
:100690008F917F916F915F914F913F912F911F911A
:1006A0000F910F900FBE0F901F901895B59A8091E3
:1006B0006F00806280936F0080913C0190913D01BA
:1006C00018992AC0FC01E957FF4F8081918101965A
:1006D000918380831092470181E08093480180914B
:1006E0004801833009F048C0E0914501F09146018E
:1006F00080812091440133B190E0022E02C0959593
:1007000087950A94E2F7832780FD1CC01092470169
:1007100082E08093480130C040913E01FC01E058E6
:10072000FF4F208131E0320F3083820F911DDC01B9
:100730004C9337FD108280E090E0892B59F20E94A3
:100740000000C8CF80914701893008F043C0309144
:100750003E0181E090E001C0880F2A95EAF7908180
:1007600030FF36C080958923808380913E0190E0E0
:100770009595879580933E0180914801823099F448
:1007800080914701811198C0E0914501F0914601A7
:1007900080819091440121E030E001C0220F9A95C0
:1007A000EAF7822B808380914801813009F069CF7C
:1007B00080914701882309F441CF80914701883314
:1007C00008F45FCF1092480180916F008D7F3ACF7F
:1007D000892BCACF80914701893059F4308181E05B
:1007E00090E001C0880F2A95EAF7809583238083E3
:1007F000C3CF809149018F5F8093490190914A0155
:10080000891750F510924701809140019091410164
:10081000A0914901A80FB92FB11D8C9180933E0181
:10082000808141E050E001C0440F2A95EAF7842B13
:10083000808380918400909185008A5A9C4F909388
:100840004301809342018091420190914301909332
:1008500089008093880090CF81E080933F01C09110
:100860004001D091410100913C0110913D01CE0128
:100870000E94AA0130E020E0D801A058BF4F2817FD
:1008800088F4FE01E20FF31F4081EC9191E09E0F8E
:100890009C93E00FF12FF11D408397FD1C922F5F79
:1008A0003F4FEDCF80E090E0892B11F00E940000D7
:1008B0001092470181E02DCF809147018F3008F4DD
:1008C00072CFE0914501F0914601208130914401C1
:1008D00081E090E001C0880F3A95EAF78095822385
:1008E00080831092470181E080934801E0913C01B0
:1008F000F0913D01E357FF4F8081918101969183F3
:10090000808351CF1F920F920FB60F9211248F93B5
:100910009F93EF93FF93B59AEFE6F0E080818F7D90
:100920008083809186009091870080529E4F9093A3
:100930004301809342018091420190914301909341
:10094000890080938800B19A80818260808384E0EE
:10095000809348011092470181E080930201FF914A
:10096000EF919F918F910F900FBE0F901F90189550
:10097000CF93DF93CDB7DEB760970FB6F894DEBFA5
:100980000FBECDBF789484B5826084BD84B581608C
:1009900084BD85B5826085BD85B5816085BD80914A
:1009A0006E00816080936E001092810080918100C2
:1009B00082608093810080918100816080938100BA
:1009C000809180008160809380008091B10084607C
:1009D0008093B1008091B00081608093B0008091DD
:1009E0007A00846080937A0080917A00826080939C
:1009F0007A0080917A00816080937A0080917A00F9
:100A0000806880937A001092C100EBE4F1E08FE8F7
:100A1000DF011D928A95E9F761E087E00E940C01F1
:100A2000E1EAF0E02491EDE8F0E0E491F0E0EE0F8F
:100A3000FF1FEE58FF4F4591549180E091E031E067
:100A4000291741F08F5F932F082E01C0990F0A9448
:100A5000EAF7F6CF50934601409345018093440155
:100A60008BE491E090933D0180933C012098E091CC
:100A70004501F091460120813091440181E090E0F0
:100A800001C0880F3A95EAF78095822380831092FF
:100A9000800081E08093810010924801B59A809196
:100AA0006F00806280936F0080918100887F8160F9
:100AB000809381008BEB89831A821B82CE01019681
:100AC0000E94B60161E083E00E940C0161E08AE0CF
:100AD0000E940C0162E084E00E940C0162E085E06B
:100AE0000E940C0161E089E00E940C0162E081E15A
:100AF0000E940C0190E0292E90E0392E20E0622E19
:100B000020E0722E30E0E32E30E0F32E40E0C42EE1
:100B100040E0D42E00E0A02E00E0B02E80E0882E31
:100B200080E0982E0E943D0100912F01109130012C
:100B30002091310130913201601B710B820B930BBC
:100B4000653171058105910508F455C00E943D018C
:100B500060932F01709330018093310190933201A3
:100B600010912D0180912E01113C20F081958093F0
:100B70002E0102C01032D0F380912E01180F109375
:100B80002D0100912C0161E0802F0E940C011111B8
:100B900005C060E0802F0E94DE002DC01F3F11F4D1
:100BA00061E0F8CFE02FF0E0E255FF4FE491E33051
:100BB00009F49CC040F4E130D1F0E23009F491C076
:100BC00017FDEECFE6CFE73009F49CC0E83009F41A
:100BD000A1C0E430A9F780918000806280938000FA
:100BE000812F90E090938B0080938A0004C084B59D
:100BF000806884BD17BD0E943D01009106011091DF
:100C000007012091080130910901601B710B820BD3
:100C1000930B6E3771058105910528F10E943D0106
:100C20006093060170930701809308019093090176
:100C30009091050181E0982790930501992399F0FF
:100C400090910401982790930401992361F0909169
:100C50000301982790930301992329F090910C01A7
:100C6000892780930C018091CC019091CB01891749
:100C700009F4F5C0E82FF0E0E55BFE4F508057FE29
:100C800092C09091CD01891751F02091D2013091FD
:100C9000D3012F5F3F4F3093D3012093D201809334
:100CA000CD01BFEFB093CE01852D80768036D1F592
:100CB0001092CF018091CC018F5F8093CC01E091A5
:100CC000CD01282F2E1B87FD1092CC018091CE01E3
:100CD0009091CF01291709F476C058265092CE0181
:100CE000C2CF84B5806284BD18BD85CF809180005D
:100CF000806880938000812F90E09093890080939A
:100D0000880079CF8091B00080688093B000109304
:100D1000B30071CF8091B00080628093B0001093D7
:100D2000B40069CF852D829586708E5F8093CF0148
:100D30002091CD018091CF01820F9927991F813891
:100D400091050CF4B7CF00E8021BF8944091CB0159
:100D50008091CD01841770F5E42FE81B8E2F8093CE
:100D6000CB0178946091CD01461738F510E050E042
:100D70006BE471E0C801855B9E4F0E94AC086091F6
:100D8000CD0170E0655B7E4FA8018BE491E00E948D
:100D9000AC088091CC019091CD01891B8093CC014E
:100DA0001092CD0187CF8091CF01811183CF5092D6
:100DB000CF01BECF802F840FD2CF461B50E070E012
:100DC000655B7E4FE2CF58123DC0F0E0E55BFE4F21
:100DD0002091D0013091D1012F5F3F4F3093D1014D
:100DE0002093D0019091CC019093CD01309709F4DC
:100DF00074CFF0930B01E0930A01309709F464C0BB
:100E00007181272F30E06281462F50E0CA0196950C
:100E1000982F88279795879580789770872B932BA5
:100E2000A081A23B89F10196A13B09F4B4C0D0F4A2
:100E3000A33809F4A2C0A03B09F4A3C0A238A1F5CD
:100E400080E09CC02091D2013091D3012F5F3F4FB1
:100E50003093D3012093D201F0E0E0E0C3CFF0E083
:100E6000E0E0C7CFAC3B09F4AAC0A03D09F4B0C094
:100E7000A43BD1F47C33C1F480E090E0892BA1F055
:100E80008CE30E94000010C022E030E065FD02C04B
:100E900021E030E02114310439F0880F991F60718E
:100EA000820F931F0E94000000910A0110910B0114
:100EB000C8010E94AA018E3039F4D80117966C91AE
:100EC00017978C910E9480028DE191E00E94490168
:100ED00080912B01882371F08091290181110AC032
:100EE00083E88983CE0101960E94B60110921C010D
:100EF000109200018DE091E00E94490180911B0158
:100F00008823D1F080911901811116C081E10E94DE
:100F1000B500892B09F0C4C085E88983CE0101960C
:100F20000E94B60180910001811103C081E080938D
:100F30001C0181E08093000110910001612F89E084
:100F40000E94DE0061E0111160E083E00E94DE009B
:100F500060E0112339F080911C0160910C01811136
:100F600001C061E08AE00E94DE0080E090E0892B11
:100F700009F4D8CD0E940000CDCD81E00E949902F5
:100F800093CF20E030E0232B09F48ECF40726071C4
:100F90000E94000089CF66FF09C0E114F10409F442
:100FA00083CF407260710E9400007ECF6114710493
:100FB00009F47ACF407160720E94000075CFC114AD
:100FC000D10409F471CF407260710E9400006CCFAF
:100FD0007076703221F07036A9F1711165CFA114CD
:100FE000B10409F461CFC9019695982F8827979588
:100FF000879580789F70840F951FA5E0359527957C
:10100000AA95E1F7217001963381448150E03D3784
:1010100031F070E8379FF00111244E0F5F1F6F70A1
:1010200079F1623079F1643079F1663079F16830C4
:1010300079F16A3079F16C3079F16E3079F10E9492
:10104000000032CF8114910409F42ECF0381802F48
:10105000807D803109F028CF44805524539411E0DD
:1010600041E0802F852109F040E0242D2521550CF9
:10107000612F80E80E9400001F5F153089F714CFB0
:1010800061E4DDCF62E4DBCF63E4D9CF64E4D7CFA2
:1010900065E4D5CF66E4D3CF67E4D1CF68E4CFCFA2
:1010A00082E83BCFCF92DF92EF92FF92CF93DF9314
:1010B000CCE2D1E086E0888380E8898388E08A8377
:1010C0001B821C821D821E8261E086E00E940C0150
:1010D0000E943D016B837C838D839E83CDE0D1E0B4
:1010E00084E1C82ED12CE12CF12CCC82DD82EE8261
:1010F000FF82188619861A861B860E943D01688326
:1011000079838A839B8385E00E94B5008C8785E084
:101110008D87CDE1D1E0CC82DD82EE82FF82188620
:1011200019861A861B860E943D01688379838A830B
:101130009B8384E00E94B5008C8784E08D87DF91DB
:10114000CF91FF90EF90DF90CF900895EE0FFF1FAB
:101150000590F491E02D09946817790768F4FB0174
:10116000DC01E40FF51FA40FB51F02C002900E9220
:1011700041505040D8F708950C94BE08FB01DC01A3
:1011800002C001900D9241505040D8F70895F89454
:02119000FFCF8F
:0211920001005A
:00000001FF
